:100000000C942A000C941A010C9441010C944700A2
:100010000C9447000C9447000C9447000C94680122
:100020000C9447000C9447000C9403010C94470077
:100030000C9447000C9447000C9447000C94470024
:100040000C9447000C9447000C9447000C94470014
:100050000C94470011241FBECFE5D8E0DEBFCDBF12
:1000600010E0A0E6B0E0ECE6FAE002C005900D92E8
:10007000A237B107D9F720E0A2E7B0E001C01D9296
:10008000AD38B207E1F70E9480000C9434050C945F
:1000900000009C0140E050E060E271EA87E090E0FF
:1000A0000E9409022150310930BD29B988E08AB97E
:1000B0008EE880BD789408955D9BFECF8CB908953D
:1000C000CF93DF93EC018881882321F021960E9451
:1000D0005C00F9CFDF91CF910895CF93DF93EC01CE
:1000E0008881882321F021960E945C00F9CF8DE061
:1000F0000E945C008AE00E945C00DF91CF9108952D
:1001000080E895E20E94490084E690E00E946D003C
:1001100081B3806C81BB8FEF8ABB83B7886083BF5C
:1001200083B7816083BF85E08CBF85B7816085BF61
:1001300085B7846085BF8BB7806C8BBF8EB58860B8
:100140008EBD8EB583608EBD1DBC1CBC84E690E068
:100150009BBD8ABD89B7806189BF789482B380686E
:1001600082BB8AE18A95F1F700C082B38F7782BBA8
:100170008FE99FE00197F1F700C0000080918900AE
:1001800090918A009F938F930CE610E01F930F933A
:10019000C2E7D0E0DF93CF930E944A02CE010E94D3
:1001A000600082B3806482BB9AE19A95F1F700C047
:1001B00082B38F7B82BB8FE690E00E9460008FE964
:1001C0009FE00197F1F700C00000809187009091B7
:1001D00088009F938F931F930F93DF93CF930E9479
:1001E0004A02CE010E946D008FEC97E00197F1F773
:1001F00000C000008DB79EB70C960FB6F8949EBF56
:100200000FBE8DBFABCF1F920F920FB60F9211246E
:100210008F939F9380918B0090918C000196909387
:100220008C0080938B009F918F910F900FBE0F9049
:100230001F9018951F920F920FB60F9211248F9353
:100240009F93829B0CC010928C0010928B00109296
:100250008A001092890089B7826089BF0BC08091A3
:100260008B0090918C0090938A008093890089B7CD
:100270008D7F89BF9F918F910F900FBE0F901F9020
:1002800018951F920F920FB60F9211248F939F9380
:10029000839B0CC010928C0010928B0010928800EF
:1002A0001092870089B7826089BF0BC080918B0054
:1002B00090918C00909388008093870089B78D7F00
:1002C00089BF9F918F910F900FBE0F901F9018952F
:1002D0001F920F920FB60F9211242F933F938F937B
:1002E0009F93809186008F5F809386008091860027
:1002F000893C20F01092860087E08BBB80918600BD
:100300008F30E1F58091600090E02091890030917C
:100310008A008217930760F48091610090E0209139
:10032000890030918A002817390720F080E003C047
:1003300080E001C081E0882319F08BB38E7F8BBBF6
:100340008091620090E020918700309188008217B0
:10035000930760F48091630090E0209187003091D2
:1003600088002817390720F080E003C080E001C032
:1003700081E0882319F08BB38D7F8BBB8091860041
:100380008131E1F58091600090E020918900309109
:100390008A008217930760F48091610090E02091B9
:1003A000890030918A002817390720F081E003C0C6
:1003B00081E001C080E0882319F08BB38E7F8BBB76
:1003C0008091620090E02091870030918800821730
:1003D000930760F48091630090E020918700309152
:1003E00088002817390720F081E003C081E001C0B0
:1003F00080E0882319F08BB38D7F8BBB1DBC1CBCA8
:100400009F918F913F912F910F900FBE0F901F9052
:100410001895052E97FB1EF400940E94200257FDAC
:1004200007D00E94280207FC03D04EF40C9420024F
:1004300050954095309521953F4F4F4F5F4F089510
:1004400090958095709561957F4F8F4F9F4F089540
:10045000A1E21A2EAA1BBB1BFD010DC0AA1FBB1FC8
:10046000EE1FFF1FA217B307E407F50720F0A21B3A
:10047000B30BE40BF50B661F771F881F991F1A94A7
:1004800069F760957095809590959B01AC01BD01D1
:10049000CF010895AEE0B0E0E0E5F2E00C940B058A
:1004A0000D891E8986E08C831A8309838FEF9FE76D
:1004B0009E838D83AE01475E5F4F6F89788DCE013D
:1004C00001960E946C02EF81F885E00FF11F108207
:1004D0002E96E4E00C942705ABE0B0E0E2E7F2E012
:1004E0000C94FD046C017B018A01FC0117821682C9
:1004F000838181FFCCC1CE0101963C01F60193813D
:10050000F70193FD859193FF81917F01882309F481
:10051000BAC1853239F493FD859193FF81917F01B2
:10052000853229F4B60190E00E946304E7CF912C54
:10053000212C312CFFE1F315D8F08B3279F038F40F
:10054000803279F08332A1F4232D20611DC08D32D9
:1005500061F0803369F4232D216016C0832D826001
:10056000382EE32DE4603E2E2AC0F32DF8601DC026
:1005700037FC2DC020ED280F2A3040F08E32B9F420
:1005800036FC81C1232D2064322E19C036FE06C0F0
:100590008AE0989E200D1124922E11C0EAE02E9E32
:1005A000200D1124222EF32DF0623F2E08C08C3630
:1005B00021F4832D8068382E02C0883641F4F7017B
:1005C00093FD859193FF81917F018111B3CF982F86
:1005D0009F7D9554933028F40C5F1F4F9FE39983C0
:1005E0000DC0833631F0833771F0833509F059C07F
:1005F00021C0F801808189830E5F1F4F8824839476
:10060000912C530113C02801F2E04F0E511CF80148
:10061000A080B18036FE03C0692D70E002C06FEF8C
:100620007FEFC5010E9458044C018201F32DFF7732
:100630003F2E16C0280122E0420E511CF801A08076
:10064000B18036FE03C0692D70E002C06FEF7FEF0E
:10065000C5010E944D044C01F32DF0683F2E82012C
:1006600033FC1BC0822D90E088169906B0F4B601C9
:1006700080E290E00E9463042A94F4CFF50137FCF5
:10068000859137FE81915F01B60190E00E9463047D
:1006900021102A9421E0821A91088114910471F7A3
:1006A000E8C0843611F0893641F5F80137FE07C0FD
:1006B00060817181828193810C5F1F4F08C06081CE
:1006C0007181072E000C880B990B0E5F1F4FF32DC5
:1006D000FF763F2E97FF09C09095809570956195A4
:1006E0007F4F8F4F9F4FF0683F2E2AE030E0A301ED
:1006F0000E949F04882E861845C0853731F4232D2B
:100700002F7EB22E2AE030E025C0932D997FB92E9E
:100710008F36C1F018F4883579F0B5C0803719F0FC
:10072000883721F0B0C0E92FE061BE2EB4FE0DC0C5
:10073000FB2DF460BF2E09C034FE0AC0292F2660AD
:10074000B22E06C028E030E005C020E130E002C053
:1007500020E132E0F801B7FE07C06081718182813B
:1007600093810C5F1F4F06C06081718180E090E033
:100770000E5F1F4FA3010E949F04882E8618FB2D39
:10078000FF773F2E36FE0DC0232D2E7FA22E89141B
:1007900058F434FE0BC032FC09C0832D8E7EA82E87
:1007A00005C0B82CA32C03C0B82C01C0B92CA4FEE2
:1007B0000FC0FE01E80DF11D8081803321F49A2DD8
:1007C000997EA92E09C0A2FE06C0B394B39404C0BA
:1007D0008A2D867809F0B394A3FC11C0A0FE06C050
:1007E000B21488F4280C922C9B180EC0B21460F43A
:1007F000B60180E290E00E946304B394F7CFB21494
:1008000018F42B1802C0982C212CA4FE10C0B6019D
:1008100080E390E00E946304A2FE17C0A1FC03C025
:1008200088E790E002C088E590E0B6010CC08A2D10
:10083000867859F0A1FE02C08BE201C080E2A7FCDD
:100840008DE2B60190E00E946304891438F4B60189
:1008500080E390E00E9463049A94F7CF8A94F301B6
:10086000E80DF11D8081B60190E00E9463048110C3
:10087000F5CF222009F442CEB60180E290E00E943A
:1008800063042A94F6CFF6018681978102C08FEF28
:100890009FEF2B96E2E10C941905FC010590615045
:1008A00070400110D8F7809590958E0F9F1F089586
:1008B000FC016150704001900110D8F7809590952F
:1008C0008E0F9F1F08950F931F93CF93DF93FB010C
:1008D000238121FD03C08FEF9FEF2CC022FF16C0A4
:1008E00046815781248135814217530744F4A08102
:1008F000B1819D012F5F3F4F318320838C932681EF
:1009000037812F5F3F4F3783268314C08B01EC0163
:10091000FB010084F185E02D0995892BE1F6D801D2
:1009200016968D919C911797019617969C938E938E
:100930001697CE01DF91CF911F910F910895FA0183
:10094000AA27283051F1203181F1E8946F936E7F0E
:100950006E5F7F4F8F4F9F4FAF4FB1E03ED0B4E0FF
:100960003CD0670F781F891F9A1FA11D680F791F40
:100970008A1F911DA11D6A0F711D811D911DA11D51
:1009800020D009F468943F912AE0269F1124301961
:10099000305D3193DEF6CF010895462F4770405DFC
:1009A0004193B3E00FD0C9F7F6CF462F4F70405DAB
:1009B0004A3318F0495D31FD4052419302D0A9F706
:1009C000EACFB4E0A6959795879577956795BA9500
:1009D000C9F700976105710508959B01AC010A2EC6
:1009E00006945795479537952795BA95C9F7620F9D
:1009F000731F841F951FA01D08952F923F924F9241
:100A00005F926F927F928F929F92AF92BF92CF929E
:100A1000DF92EF92FF920F931F93CF93DF93CDB7A7
:100A2000DEB7CA1BDB0B0FB6F894DEBF0FBECDBF1F
:100A300009942A88398848885F846E847D848C84F0
:100A40009B84AA84B984C884DF80EE80FD800C81F9
:100A50001B81AA81B981CE0FD11D0FB6F894DEBFDC
:0C0A60000FBECDBFED010895F894FFCF4C
:100A6C005A78789653746172746564002575002009
:020A7C00000078
:00000001FF
